{
  "contractName": "MyNFT",
  "abi": [
    {
      "inputs": [],
      "stateMutability": "nonpayable",
      "type": "constructor"
    },
    {
      "anonymous": false,
      "inputs": [
        {
          "indexed": true,
          "internalType": "address",
          "name": "owner",
          "type": "address"
        },
        {
          "indexed": true,
          "internalType": "address",
          "name": "approved",
          "type": "address"
        },
        {
          "indexed": true,
          "internalType": "uint256",
          "name": "tokenId",
          "type": "uint256"
        }
      ],
      "name": "Approval",
      "type": "event"
    },
    {
      "anonymous": false,
      "inputs": [
        {
          "indexed": true,
          "internalType": "address",
          "name": "owner",
          "type": "address"
        },
        {
          "indexed": true,
          "internalType": "address",
          "name": "operator",
          "type": "address"
        },
        {
          "indexed": false,
          "internalType": "bool",
          "name": "approved",
          "type": "bool"
        }
      ],
      "name": "ApprovalForAll",
      "type": "event"
    },
    {
      "anonymous": false,
      "inputs": [
        {
          "indexed": true,
          "internalType": "address",
          "name": "from",
          "type": "address"
        },
        {
          "indexed": true,
          "internalType": "address",
          "name": "to",
          "type": "address"
        },
        {
          "indexed": true,
          "internalType": "uint256",
          "name": "tokenId",
          "type": "uint256"
        }
      ],
      "name": "Transfer",
      "type": "event"
    },
    {
      "inputs": [
        {
          "internalType": "address",
          "name": "to",
          "type": "address"
        },
        {
          "internalType": "uint256",
          "name": "tokenId",
          "type": "uint256"
        }
      ],
      "name": "approve",
      "outputs": [],
      "stateMutability": "nonpayable",
      "type": "function"
    },
    {
      "inputs": [
        {
          "internalType": "address",
          "name": "owner",
          "type": "address"
        }
      ],
      "name": "balanceOf",
      "outputs": [
        {
          "internalType": "uint256",
          "name": "",
          "type": "uint256"
        }
      ],
      "stateMutability": "view",
      "type": "function",
      "constant": true
    },
    {
      "inputs": [
        {
          "internalType": "uint256",
          "name": "tokenId",
          "type": "uint256"
        }
      ],
      "name": "getApproved",
      "outputs": [
        {
          "internalType": "address",
          "name": "",
          "type": "address"
        }
      ],
      "stateMutability": "view",
      "type": "function",
      "constant": true
    },
    {
      "inputs": [
        {
          "internalType": "address",
          "name": "owner",
          "type": "address"
        },
        {
          "internalType": "address",
          "name": "operator",
          "type": "address"
        }
      ],
      "name": "isApprovedForAll",
      "outputs": [
        {
          "internalType": "bool",
          "name": "",
          "type": "bool"
        }
      ],
      "stateMutability": "view",
      "type": "function",
      "constant": true
    },
    {
      "inputs": [],
      "name": "name",
      "outputs": [
        {
          "internalType": "string",
          "name": "",
          "type": "string"
        }
      ],
      "stateMutability": "view",
      "type": "function",
      "constant": true
    },
    {
      "inputs": [
        {
          "internalType": "uint256",
          "name": "tokenId",
          "type": "uint256"
        }
      ],
      "name": "ownerOf",
      "outputs": [
        {
          "internalType": "address",
          "name": "",
          "type": "address"
        }
      ],
      "stateMutability": "view",
      "type": "function",
      "constant": true
    },
    {
      "inputs": [
        {
          "internalType": "address",
          "name": "from",
          "type": "address"
        },
        {
          "internalType": "address",
          "name": "to",
          "type": "address"
        },
        {
          "internalType": "uint256",
          "name": "tokenId",
          "type": "uint256"
        }
      ],
      "name": "safeTransferFrom",
      "outputs": [],
      "stateMutability": "nonpayable",
      "type": "function"
    },
    {
      "inputs": [
        {
          "internalType": "address",
          "name": "from",
          "type": "address"
        },
        {
          "internalType": "address",
          "name": "to",
          "type": "address"
        },
        {
          "internalType": "uint256",
          "name": "tokenId",
          "type": "uint256"
        },
        {
          "internalType": "bytes",
          "name": "_data",
          "type": "bytes"
        }
      ],
      "name": "safeTransferFrom",
      "outputs": [],
      "stateMutability": "nonpayable",
      "type": "function"
    },
    {
      "inputs": [
        {
          "internalType": "address",
          "name": "operator",
          "type": "address"
        },
        {
          "internalType": "bool",
          "name": "approved",
          "type": "bool"
        }
      ],
      "name": "setApprovalForAll",
      "outputs": [],
      "stateMutability": "nonpayable",
      "type": "function"
    },
    {
      "inputs": [
        {
          "internalType": "bytes4",
          "name": "interfaceId",
          "type": "bytes4"
        }
      ],
      "name": "supportsInterface",
      "outputs": [
        {
          "internalType": "bool",
          "name": "",
          "type": "bool"
        }
      ],
      "stateMutability": "view",
      "type": "function",
      "constant": true
    },
    {
      "inputs": [],
      "name": "symbol",
      "outputs": [
        {
          "internalType": "string",
          "name": "",
          "type": "string"
        }
      ],
      "stateMutability": "view",
      "type": "function",
      "constant": true
    },
    {
      "inputs": [
        {
          "internalType": "uint256",
          "name": "tokenId",
          "type": "uint256"
        }
      ],
      "name": "tokenURI",
      "outputs": [
        {
          "internalType": "string",
          "name": "",
          "type": "string"
        }
      ],
      "stateMutability": "view",
      "type": "function",
      "constant": true
    },
    {
      "inputs": [
        {
          "internalType": "address",
          "name": "from",
          "type": "address"
        },
        {
          "internalType": "address",
          "name": "to",
          "type": "address"
        },
        {
          "internalType": "uint256",
          "name": "tokenId",
          "type": "uint256"
        }
      ],
      "name": "transferFrom",
      "outputs": [],
      "stateMutability": "nonpayable",
      "type": "function"
    },
    {
      "inputs": [
        {
          "internalType": "address",
          "name": "recipient",
          "type": "address"
        }
      ],
      "name": "mintNFT",
      "outputs": [
        {
          "internalType": "uint256",
          "name": "",
          "type": "uint256"
        }
      ],
      "stateMutability": "nonpayable",
      "type": "function"
    }
  ],
  "bytecode": "0x60806040523480156200001157600080fd5b506040518060400160405280600581526020017f4d794e46540000000000000000000000000000000000000000000000000000008152506040518060400160405280600381526020017f4e46540000000000000000000000000000000000000000000000000000000000815250816000908051906020019062000096929190620000b8565b508060019080519060200190620000af929190620000b8565b505050620001cd565b828054620000c69062000197565b90600052602060002090601f016020900481019282620000ea576000855562000136565b82601f106200010557805160ff191683800117855562000136565b8280016001018555821562000136579182015b828111156200013557825182559160200191906001019062000118565b5b50905062000145919062000149565b5090565b5b80821115620001645760008160009055506001016200014a565b5090565b7f4e487b7100000000000000000000000000000000000000000000000000000000600052602260045260246000fd5b60006002820490506001821680620001b057607f821691505b60208210811415620001c757620001c662000168565b5b50919050565b6126ff80620001dd6000396000f3fe608060405234801561001057600080fd5b50600436106100ea5760003560e01c80636352211e1161008c578063a22cb46511610066578063a22cb4651461026f578063b88d4fde1461028b578063c87b56dd146102a7578063e985e9c5146102d7576100ea565b80636352211e146101f157806370a082311461022157806395d89b4114610251576100ea565b8063095ea7b3116100c8578063095ea7b31461016d57806323b872dd1461018957806342842e0e146101a557806354ba0f27146101c1576100ea565b806301ffc9a7146100ef57806306fdde031461011f578063081812fc1461013d575b600080fd5b61010960048036038101906101049190611682565b610307565b60405161011691906116ca565b60405180910390f35b6101276103e9565b604051610134919061177e565b60405180910390f35b610157600480360381019061015291906117d6565b61047b565b6040516101649190611844565b60405180910390f35b6101876004803603810190610182919061188b565b610500565b005b6101a3600480360381019061019e91906118cb565b610618565b005b6101bf60048036038101906101ba91906118cb565b610678565b005b6101db60048036038101906101d6919061191e565b610698565b6040516101e8919061195a565b60405180910390f35b61020b600480360381019061020691906117d6565b6106c5565b6040516102189190611844565b60405180910390f35b61023b6004803603810190610236919061191e565b610777565b604051610248919061195a565b60405180910390f35b61025961082f565b604051610266919061177e565b60405180910390f35b610289600480360381019061028491906119a1565b6108c1565b005b6102a560048036038101906102a09190611b16565b610a42565b005b6102c160048036038101906102bc91906117d6565b610aa4565b6040516102ce919061177e565b60405180910390f35b6102f160048036038101906102ec9190611b99565b610b4b565b6040516102fe91906116ca565b60405180910390f35b60007f80ac58cd000000000000000000000000000000000000000000000000000000007bffffffffffffffffffffffffffffffffffffffffffffffffffffffff1916827bffffffffffffffffffffffffffffffffffffffffffffffffffffffff191614806103d257507f5b5e139f000000000000000000000000000000000000000000000000000000007bffffffffffffffffffffffffffffffffffffffffffffffffffffffff1916827bffffffffffffffffffffffffffffffffffffffffffffffffffffffff1916145b806103e257506103e182610bdf565b5b9050919050565b6060600080546103f890611c08565b80601f016020809104026020016040519081016040528092919081815260200182805461042490611c08565b80156104715780601f1061044657610100808354040283529160200191610471565b820191906000526020600020905b81548152906001019060200180831161045457829003601f168201915b5050505050905090565b600061048682610c49565b6104c5576040517f08c379a00000000000000000000000000000000000000000000000000000000081526004016104bc90611cac565b60405180910390fd5b6004600083815260200190815260200160002060009054906101000a900473ffffffffffffffffffffffffffffffffffffffff169050919050565b600061050b826106c5565b90508073ffffffffffffffffffffffffffffffffffffffff168373ffffffffffffffffffffffffffffffffffffffff16141561057c576040517f08c379a000000000000000000000000000000000000000000000000000000000815260040161057390611d3e565b60405180910390fd5b8073ffffffffffffffffffffffffffffffffffffffff1661059b610cb5565b73ffffffffffffffffffffffffffffffffffffffff1614806105ca57506105c9816105c4610cb5565b610b4b565b5b610609576040517f08c379a000000000000000000000000000000000000000000000000000000000815260040161060090611dd0565b60405180910390fd5b6106138383610cbd565b505050565b610629610623610cb5565b82610d76565b610668576040517f08c379a000000000000000000000000000000000000000000000000000000000815260040161065f90611e62565b60405180910390fd5b610673838383610e54565b505050565b61069383838360405180602001604052806000815250610a42565b505050565b60006106a460066110b0565b60006106b060066110c6565b90506106bc83826110d4565b80915050919050565b6000806002600084815260200190815260200160002060009054906101000a900473ffffffffffffffffffffffffffffffffffffffff169050600073ffffffffffffffffffffffffffffffffffffffff168173ffffffffffffffffffffffffffffffffffffffff16141561076e576040517f08c379a000000000000000000000000000000000000000000000000000000000815260040161076590611ef4565b60405180910390fd5b80915050919050565b60008073ffffffffffffffffffffffffffffffffffffffff168273ffffffffffffffffffffffffffffffffffffffff1614156107e8576040517f08c379a00000000000000000000000000000000000000000000000000000000081526004016107df90611f86565b60405180910390fd5b600360008373ffffffffffffffffffffffffffffffffffffffff1673ffffffffffffffffffffffffffffffffffffffff168152602001908152602001600020549050919050565b60606001805461083e90611c08565b80601f016020809104026020016040519081016040528092919081815260200182805461086a90611c08565b80156108b75780601f1061088c576101008083540402835291602001916108b7565b820191906000526020600020905b81548152906001019060200180831161089a57829003601f168201915b5050505050905090565b6108c9610cb5565b73ffffffffffffffffffffffffffffffffffffffff168273ffffffffffffffffffffffffffffffffffffffff161415610937576040517f08c379a000000000000000000000000000000000000000000000000000000000815260040161092e90611ff2565b60405180910390fd5b8060056000610944610cb5565b73ffffffffffffffffffffffffffffffffffffffff1673ffffffffffffffffffffffffffffffffffffffff16815260200190815260200160002060008473ffffffffffffffffffffffffffffffffffffffff1673ffffffffffffffffffffffffffffffffffffffff16815260200190815260200160002060006101000a81548160ff0219169083151502179055508173ffffffffffffffffffffffffffffffffffffffff166109f1610cb5565b73ffffffffffffffffffffffffffffffffffffffff167f17307eab39ab6107e8899845ad3d59bd9653f200f220920489ca2b5937696c3183604051610a3691906116ca565b60405180910390a35050565b610a53610a4d610cb5565b83610d76565b610a92576040517f08c379a0000000000000000000000000000000000000000000000000000000008152600401610a8990611e62565b60405180910390fd5b610a9e848484846112a2565b50505050565b6060610aaf82610c49565b610aee576040517f08c379a0000000000000000000000000000000000000000000000000000000008152600401610ae590612084565b60405180910390fd5b6000610af86112fe565b90506000815111610b185760405180602001604052806000815250610b43565b80610b2284611315565b604051602001610b339291906120e0565b6040516020818303038152906040525b915050919050565b6000600560008473ffffffffffffffffffffffffffffffffffffffff1673ffffffffffffffffffffffffffffffffffffffff16815260200190815260200160002060008373ffffffffffffffffffffffffffffffffffffffff1673ffffffffffffffffffffffffffffffffffffffff16815260200190815260200160002060009054906101000a900460ff16905092915050565b60007f01ffc9a7000000000000000000000000000000000000000000000000000000007bffffffffffffffffffffffffffffffffffffffffffffffffffffffff1916827bffffffffffffffffffffffffffffffffffffffffffffffffffffffff1916149050919050565b60008073ffffffffffffffffffffffffffffffffffffffff166002600084815260200190815260200160002060009054906101000a900473ffffffffffffffffffffffffffffffffffffffff1673ffffffffffffffffffffffffffffffffffffffff1614159050919050565b600033905090565b816004600083815260200190815260200160002060006101000a81548173ffffffffffffffffffffffffffffffffffffffff021916908373ffffffffffffffffffffffffffffffffffffffff160217905550808273ffffffffffffffffffffffffffffffffffffffff16610d30836106c5565b73ffffffffffffffffffffffffffffffffffffffff167f8c5be1e5ebec7d5bd14f71427d1e84f3dd0314c0f7b2291e5b200ac8c7c3b92560405160405180910390a45050565b6000610d8182610c49565b610dc0576040517f08c379a0000000000000000000000000000000000000000000000000000000008152600401610db790612176565b60405180910390fd5b6000610dcb836106c5565b90508073ffffffffffffffffffffffffffffffffffffffff168473ffffffffffffffffffffffffffffffffffffffff161480610e3a57508373ffffffffffffffffffffffffffffffffffffffff16610e228461047b565b73ffffffffffffffffffffffffffffffffffffffff16145b80610e4b5750610e4a8185610b4b565b5b91505092915050565b8273ffffffffffffffffffffffffffffffffffffffff16610e74826106c5565b73ffffffffffffffffffffffffffffffffffffffff1614610eca576040517f08c379a0000000000000000000000000000000000000000000000000000000008152600401610ec190612208565b60405180910390fd5b600073ffffffffffffffffffffffffffffffffffffffff168273ffffffffffffffffffffffffffffffffffffffff161415610f3a576040517f08c379a0000000000000000000000000000000000000000000000000000000008152600401610f319061229a565b60405180910390fd5b610f45838383611476565b610f50600082610cbd565b6001600360008573ffffffffffffffffffffffffffffffffffffffff1673ffffffffffffffffffffffffffffffffffffffff1681526020019081526020016000206000828254610fa091906122e9565b925050819055506001600360008473ffffffffffffffffffffffffffffffffffffffff1673ffffffffffffffffffffffffffffffffffffffff1681526020019081526020016000206000828254610ff7919061231d565b92505081905550816002600083815260200190815260200160002060006101000a81548173ffffffffffffffffffffffffffffffffffffffff021916908373ffffffffffffffffffffffffffffffffffffffff160217905550808273ffffffffffffffffffffffffffffffffffffffff168473ffffffffffffffffffffffffffffffffffffffff167fddf252ad1be2c89b69c2b068fc378daa952ba7f163c4a11628f55a4df523b3ef60405160405180910390a4505050565b6001816000016000828254019250508190555050565b600081600001549050919050565b600073ffffffffffffffffffffffffffffffffffffffff168273ffffffffffffffffffffffffffffffffffffffff161415611144576040517f08c379a000000000000000000000000000000000000000000000000000000000815260040161113b906123bf565b60405180910390fd5b61114d81610c49565b1561118d576040517f08c379a00000000000000000000000000000000000000000000000000000000081526004016111849061242b565b60405180910390fd5b61119960008383611476565b6001600360008473ffffffffffffffffffffffffffffffffffffffff1673ffffffffffffffffffffffffffffffffffffffff16815260200190815260200160002060008282546111e9919061231d565b92505081905550816002600083815260200190815260200160002060006101000a81548173ffffffffffffffffffffffffffffffffffffffff021916908373ffffffffffffffffffffffffffffffffffffffff160217905550808273ffffffffffffffffffffffffffffffffffffffff16600073ffffffffffffffffffffffffffffffffffffffff167fddf252ad1be2c89b69c2b068fc378daa952ba7f163c4a11628f55a4df523b3ef60405160405180910390a45050565b6112ad848484610e54565b6112b98484848461147b565b6112f8576040517f08c379a00000000000000000000000000000000000000000000000000000000081526004016112ef906124bd565b60405180910390fd5b50505050565b606060405180602001604052806000815250905090565b6060600082141561135d576040518060400160405280600181526020017f30000000000000000000000000000000000000000000000000000000000000008152509050611471565b600082905060005b6000821461138f578080611378906124dd565b915050600a826113889190612555565b9150611365565b60008167ffffffffffffffff8111156113ab576113aa6119eb565b5b6040519080825280601f01601f1916602001820160405280156113dd5781602001600182028036833780820191505090505b5090505b6000851461146a576001826113f691906122e9565b9150600a856114059190612586565b6030611411919061231d565b60f81b818381518110611427576114266125b7565b5b60200101907effffffffffffffffffffffffffffffffffffffffffffffffffffffffffffff1916908160001a905350600a856114639190612555565b94506113e1565b8093505050505b919050565b505050565b600061149c8473ffffffffffffffffffffffffffffffffffffffff16611603565b156115f6578373ffffffffffffffffffffffffffffffffffffffff1663150b7a026114c5610cb5565b8786866040518563ffffffff1660e01b81526004016114e7949392919061263b565b6020604051808303816000875af192505050801561152357506040513d601f19601f82011682018060405250810190611520919061269c565b60015b6115a6573d8060008114611553576040519150601f19603f3d011682016040523d82523d6000602084013e611558565b606091505b5060008151141561159e576040517f08c379a0000000000000000000000000000000000000000000000000000000008152600401611595906124bd565b60405180910390fd5b805181602001fd5b63150b7a0260e01b7bffffffffffffffffffffffffffffffffffffffffffffffffffffffff1916817bffffffffffffffffffffffffffffffffffffffffffffffffffffffff1916149150506115fb565b600190505b949350505050565b600080823b905060008111915050919050565b6000604051905090565b600080fd5b600080fd5b60007fffffffff0000000000000000000000000000000000000000000000000000000082169050919050565b61165f8161162a565b811461166a57600080fd5b50565b60008135905061167c81611656565b92915050565b60006020828403121561169857611697611620565b5b60006116a68482850161166d565b91505092915050565b60008115159050919050565b6116c4816116af565b82525050565b60006020820190506116df60008301846116bb565b92915050565b600081519050919050565b600082825260208201905092915050565b60005b8381101561171f578082015181840152602081019050611704565b8381111561172e576000848401525b50505050565b6000601f19601f8301169050919050565b6000611750826116e5565b61175a81856116f0565b935061176a818560208601611701565b61177381611734565b840191505092915050565b600060208201905081810360008301526117988184611745565b905092915050565b6000819050919050565b6117b3816117a0565b81146117be57600080fd5b50565b6000813590506117d0816117aa565b92915050565b6000602082840312156117ec576117eb611620565b5b60006117fa848285016117c1565b91505092915050565b600073ffffffffffffffffffffffffffffffffffffffff82169050919050565b600061182e82611803565b9050919050565b61183e81611823565b82525050565b60006020820190506118596000830184611835565b92915050565b61186881611823565b811461187357600080fd5b50565b6000813590506118858161185f565b92915050565b600080604083850312156118a2576118a1611620565b5b60006118b085828601611876565b92505060206118c1858286016117c1565b9150509250929050565b6000806000606084860312156118e4576118e3611620565b5b60006118f286828701611876565b935050602061190386828701611876565b9250506040611914868287016117c1565b9150509250925092565b60006020828403121561193457611933611620565b5b600061194284828501611876565b91505092915050565b611954816117a0565b82525050565b600060208201905061196f600083018461194b565b92915050565b61197e816116af565b811461198957600080fd5b50565b60008135905061199b81611975565b92915050565b600080604083850312156119b8576119b7611620565b5b60006119c685828601611876565b92505060206119d78582860161198c565b9150509250929050565b600080fd5b600080fd5b7f4e487b7100000000000000000000000000000000000000000000000000000000600052604160045260246000fd5b611a2382611734565b810181811067ffffffffffffffff82111715611a4257611a416119eb565b5b80604052505050565b6000611a55611616565b9050611a618282611a1a565b919050565b600067ffffffffffffffff821115611a8157611a806119eb565b5b611a8a82611734565b9050602081019050919050565b82818337600083830152505050565b6000611ab9611ab484611a66565b611a4b565b905082815260208101848484011115611ad557611ad46119e6565b5b611ae0848285611a97565b509392505050565b600082601f830112611afd57611afc6119e1565b5b8135611b0d848260208601611aa6565b91505092915050565b60008060008060808587031215611b3057611b2f611620565b5b6000611b3e87828801611876565b9450506020611b4f87828801611876565b9350506040611b60878288016117c1565b925050606085013567ffffffffffffffff811115611b8157611b80611625565b5b611b8d87828801611ae8565b91505092959194509250565b60008060408385031215611bb057611baf611620565b5b6000611bbe85828601611876565b9250506020611bcf85828601611876565b9150509250929050565b7f4e487b7100000000000000000000000000000000000000000000000000000000600052602260045260246000fd5b60006002820490506001821680611c2057607f821691505b60208210811415611c3457611c33611bd9565b5b50919050565b7f4552433732313a20617070726f76656420717565727920666f72206e6f6e657860008201527f697374656e7420746f6b656e0000000000000000000000000000000000000000602082015250565b6000611c96602c836116f0565b9150611ca182611c3a565b604082019050919050565b60006020820190508181036000830152611cc581611c89565b9050919050565b7f4552433732313a20617070726f76616c20746f2063757272656e74206f776e6560008201527f7200000000000000000000000000000000000000000000000000000000000000602082015250565b6000611d286021836116f0565b9150611d3382611ccc565b604082019050919050565b60006020820190508181036000830152611d5781611d1b565b9050919050565b7f4552433732313a20617070726f76652063616c6c6572206973206e6f74206f7760008201527f6e6572206e6f7220617070726f76656420666f7220616c6c0000000000000000602082015250565b6000611dba6038836116f0565b9150611dc582611d5e565b604082019050919050565b60006020820190508181036000830152611de981611dad565b9050919050565b7f4552433732313a207472616e736665722063616c6c6572206973206e6f74206f60008201527f776e6572206e6f7220617070726f766564000000000000000000000000000000602082015250565b6000611e4c6031836116f0565b9150611e5782611df0565b604082019050919050565b60006020820190508181036000830152611e7b81611e3f565b9050919050565b7f4552433732313a206f776e657220717565727920666f72206e6f6e657869737460008201527f656e7420746f6b656e0000000000000000000000000000000000000000000000602082015250565b6000611ede6029836116f0565b9150611ee982611e82565b604082019050919050565b60006020820190508181036000830152611f0d81611ed1565b9050919050565b7f4552433732313a2062616c616e636520717565727920666f7220746865207a6560008201527f726f206164647265737300000000000000000000000000000000000000000000602082015250565b6000611f70602a836116f0565b9150611f7b82611f14565b604082019050919050565b60006020820190508181036000830152611f9f81611f63565b9050919050565b7f4552433732313a20617070726f766520746f2063616c6c657200000000000000600082015250565b6000611fdc6019836116f0565b9150611fe782611fa6565b602082019050919050565b6000602082019050818103600083015261200b81611fcf565b9050919050565b7f4552433732314d657461646174613a2055524920717565727920666f72206e6f60008201527f6e6578697374656e7420746f6b656e0000000000000000000000000000000000602082015250565b600061206e602f836116f0565b915061207982612012565b604082019050919050565b6000602082019050818103600083015261209d81612061565b9050919050565b600081905092915050565b60006120ba826116e5565b6120c481856120a4565b93506120d4818560208601611701565b80840191505092915050565b60006120ec82856120af565b91506120f882846120af565b91508190509392505050565b7f4552433732313a206f70657261746f7220717565727920666f72206e6f6e657860008201527f697374656e7420746f6b656e0000000000000000000000000000000000000000602082015250565b6000612160602c836116f0565b915061216b82612104565b604082019050919050565b6000602082019050818103600083015261218f81612153565b9050919050565b7f4552433732313a207472616e73666572206f6620746f6b656e2074686174206960008201527f73206e6f74206f776e0000000000000000000000000000000000000000000000602082015250565b60006121f26029836116f0565b91506121fd82612196565b604082019050919050565b60006020820190508181036000830152612221816121e5565b9050919050565b7f4552433732313a207472616e7366657220746f20746865207a65726f2061646460008201527f7265737300000000000000000000000000000000000000000000000000000000602082015250565b60006122846024836116f0565b915061228f82612228565b604082019050919050565b600060208201905081810360008301526122b381612277565b9050919050565b7f4e487b7100000000000000000000000000000000000000000000000000000000600052601160045260246000fd5b60006122f4826117a0565b91506122ff836117a0565b925082821015612312576123116122ba565b5b828203905092915050565b6000612328826117a0565b9150612333836117a0565b9250827fffffffffffffffffffffffffffffffffffffffffffffffffffffffffffffffff03821115612368576123676122ba565b5b828201905092915050565b7f4552433732313a206d696e7420746f20746865207a65726f2061646472657373600082015250565b60006123a96020836116f0565b91506123b482612373565b602082019050919050565b600060208201905081810360008301526123d88161239c565b9050919050565b7f4552433732313a20746f6b656e20616c7265616479206d696e74656400000000600082015250565b6000612415601c836116f0565b9150612420826123df565b602082019050919050565b6000602082019050818103600083015261244481612408565b9050919050565b7f4552433732313a207472616e7366657220746f206e6f6e20455243373231526560008201527f63656976657220696d706c656d656e7465720000000000000000000000000000602082015250565b60006124a76032836116f0565b91506124b28261244b565b604082019050919050565b600060208201905081810360008301526124d68161249a565b9050919050565b60006124e8826117a0565b91507fffffffffffffffffffffffffffffffffffffffffffffffffffffffffffffffff82141561251b5761251a6122ba565b5b600182019050919050565b7f4e487b7100000000000000000000000000000000000000000000000000000000600052601260045260246000fd5b6000612560826117a0565b915061256b836117a0565b92508261257b5761257a612526565b5b828204905092915050565b6000612591826117a0565b915061259c836117a0565b9250826125ac576125ab612526565b5b828206905092915050565b7f4e487b7100000000000000000000000000000000000000000000000000000000600052603260045260246000fd5b600081519050919050565b600082825260208201905092915050565b600061260d826125e6565b61261781856125f1565b9350612627818560208601611701565b61263081611734565b840191505092915050565b60006080820190506126506000830187611835565b61265d6020830186611835565b61266a604083018561194b565b818103606083015261267c8184612602565b905095945050505050565b60008151905061269681611656565b92915050565b6000602082840312156126b2576126b1611620565b5b60006126c084828501612687565b9150509291505056fea2646970667358221220650a4fe340d1d06db52e9b953de3879482f0b923cb4ea1c6d1af5db2ff8a8e5864736f6c634300080a0033",
  "immutableReferences": {},
  "source": "// SPDX-License-Identifier: MIT\npragma solidity ^0.8.10;\n\nimport \"@openzeppelin/contracts/token/ERC721/ERC721.sol\";\nimport \"@openzeppelin/contracts/utils/Counters.sol\";\n\ncontract MyNFT is ERC721 {\n    using Counters for Counters.Counter;\n    Counters.Counter private _tokenIds;\n\n    constructor() ERC721(\"MyNFT\", \"NFT\") {}\n\n    function mintNFT(address recipient)\n        public returns (uint256)\n    {\n        _tokenIds.increment();\n\n        uint256 newItemId = _tokenIds.current();\n        _mint(recipient, newItemId);        \n\n        return newItemId;\n    }\n}",
  "sourcePath": "/home/sheng/blockchain/solidity/rinkeby/contracts/MyNFT.sol",
  "compiler": {
    "name": "solc",
    "version": "0.8.10+commit.fc410830.Emscripten.clang"
  },
  "schemaVersion": "3.4.3",
  "updatedAt": "2021-11-12T19:47:47.748Z",
  "networkType": "ethereum",
  "devdoc": {
    "kind": "dev",
    "methods": {
      "approve(address,uint256)": {
        "details": "See {IERC721-approve}."
      },
      "balanceOf(address)": {
        "details": "See {IERC721-balanceOf}."
      },
      "getApproved(uint256)": {
        "details": "See {IERC721-getApproved}."
      },
      "isApprovedForAll(address,address)": {
        "details": "See {IERC721-isApprovedForAll}."
      },
      "name()": {
        "details": "See {IERC721Metadata-name}."
      },
      "ownerOf(uint256)": {
        "details": "See {IERC721-ownerOf}."
      },
      "safeTransferFrom(address,address,uint256)": {
        "details": "See {IERC721-safeTransferFrom}."
      },
      "safeTransferFrom(address,address,uint256,bytes)": {
        "details": "See {IERC721-safeTransferFrom}."
      },
      "setApprovalForAll(address,bool)": {
        "details": "See {IERC721-setApprovalForAll}."
      },
      "supportsInterface(bytes4)": {
        "details": "See {IERC165-supportsInterface}."
      },
      "symbol()": {
        "details": "See {IERC721Metadata-symbol}."
      },
      "tokenURI(uint256)": {
        "details": "See {IERC721Metadata-tokenURI}."
      },
      "transferFrom(address,address,uint256)": {
        "details": "See {IERC721-transferFrom}."
      }
    },
    "version": 1
  },
  "userdoc": {
    "kind": "user",
    "methods": {},
    "version": 1
  }
}